:020000020000FC
:040000000C94340028
:040034000C947400B4
:100068009FEF9DBF98E09EBF9EEF9AB99FEF94B90E
:1000780099279093C50097E69093C40096E09093D3
:10008800C20098E19093C10091E090936F0092E0D4
:100098009093810078940EF0FECFE894992795B953
:1000A800E0E0FAE00E94790090E19093C10090911D
:1000B800C00097FFFCCF2091C600213380F0253384
:1000C80070F4922F9053392F91E0931729F03A95B5
:1000D800990F3A9509F0FCCF85B1892785B9E7CF03
:1000E800689499279093810018959591903039F0EC
:1000F8001091C00015FFFCCF9093C600F6CF08956D
:100A00002A2A2A20486F6C61204C61626F2064653D
:100A1000204D6963726F202A2A2A0D0A457363727A
:100A200069626120312C20322C2033206F20342049
:100A30007061726120636F6E74726F6C6172206C92
:0A0A40006F73204C4544730D0A004B
:00000001FF
