:020000020000FC
:040000000C94340028
:080048000C947D000C94730080
:040034000C946E00BA
:100068009FEF9DBF98E09EBF9EEF9AB99FEF94B90E
:1000780099279093C50097E69093C40096E09093D3
:10008800C20098EF9093C100E0E0FAE091E090930D
:100098006F0092E090938100E0E0FAE078940EF02F
:1000A800FECFE894992795B90EF0FECF213388F05A
:1000B800253378F4922F9053392F91E0931729F034
:1000C8003A95990F3A9509F0FCCF85B1892785B9FA
:1000D800E894EACF689499279093810018959591B0
:1000E800903019F09093C600189590E99093C1004C
:0A00F80018952091C6006894189531
:100A00002A2A2A20486F6C61204C61626F2064653D
:100A1000204D6963726F202A2A2A0D0A457363727A
:100A200069626120312C20322C2033206F20342049
:100A30007061726120636F6E74726F6C6172206C92
:0A0A40006F73204C4544730D0A004B
:00000001FF
